:1000000000800010ED3800001D3900001F3900008D
:1000100021390000233900002539000000000000CC
:10002000000000000000000000000000E11C0000D3
:1000300029390000000000004B1D0000811D000058
:100040002F3900002F3900002F3900002F39000010
:100050002F3900002F3900002F3900002F39000000
:100060002F3900002F3900002F3900002F390000F0
:100070002F3900002F3900002F3900002F390000E0
:100080002F3900002F3900002F3900002F390000D0
:100090002F3900002F3900002F3900002F390000C0
:1000A0002F3900002F3900002F3900002F390000B0
:1000B0002F3900002F3900002F3900002F390000A0
:1000C0002F3900002F3900002F39000010B5054CE2
:1000D000237833B9044B13B10448AFF300800123F4
:1000E000237010BDF4010010000000000473000034
:1000F000084B10B51BB108480849AFF30080084809
:10010000036803B910BD074B002BFBD0BDE81040BE
:10011000184700BF0000000004730000F801001041
:10012000F40100100000000038B504461D4603F03D
:100130001FF920463DB9084903F02AF9074801F0A4
:10014000D1FF204638BD064903F022F9034801F0EB
:10015000C9FF204638BD00BFA0860100CDCC4C3E73
:10016000801A0600F0B5002385B004240646174621
:100170008DF808308DF809308DF80D308DF80C4071
:1001800081B101290CD11D460E4C216000953046ED
:10019000394603AA022303F013F920600028F5D1A1
:1001A00005B0F0BD0D46074C012323600095304695
:1001B000394602AA022303F003F920600028F5D192
:1001C00005B0F0BD100200102DE9F041042286B008
:1001D000002406461F468DF810408DF81120204D52
:1001E000002939D1012203232A608DF8113000241F
:1001F000022300943046394604AA03F0E1F8184B74
:1002000028600028F4D104460DF118088F2101223E
:1002100008F80C1D1A600123009430463946424606
:1002200003F0CEF80E4B28600028F4D104460122DA
:100230001A6000943046394605AA022303F0DAF822
:1002400028600028F5D19DF814009DF8153003EBC7
:10025000002006B0BDE8F08101232B60C7E700BF96
:1002600010020010704700BFF8B5104F104C002569
:100270004FF0FF31204600F0B1FB57F825602046D3
:1002800000F0B0FB29460B4803F01AFB3112094875
:1002900003F016FB71B2074803F012FB052014347B
:1002A00000F006FC002DE1D10125E1E7C4030010B8
:1002B000140200108002001008B50B4C4FF0FF3103
:1002C0000A4800F08BFB0A4801F0D8FF094904F006
:1002D0007BF804F03FFA2060044800F083FB142010
:1002E00000F0E6FBEAE700BFC403001014020010B0
:1002F0003C02001000007F4308B50C480021C422D6
:10030000FFF730FF0A4C4FF0FF310A4800F066FB60
:1003100001210A46C4230548FFF756FF60600548DF
:1003200000F060FB142000F0C3FBECE7AC0200100F
:10033000C40300102802001008B50A4C4FF0FF312A
:10034000094800F04BFB206803F0EAFF014607482C
:1003500000F0C6FA044800F045FB142000F0A8FBAA
:10036000ECE700BFC8020010FC020010B40200104D
:1003700008B50A4C4FF0FF31094800F02FFB6068C8
:1003800003F0CEFF0146074800F0AAFA044800F047
:1003900029FB142000F08CFBECE700BFC802001022
:1003A00010030010CC03001008B50A4C4FF0FF31C9
:1003B000094800F013FBA06803F0B2FF01460748AC
:1003C00000F08EFA044800F00DFB142000F070FBE2
:1003D000ECE700BFC802001024030010E802001080
:1003E00008B50A4C4FF0FF31094800F0F7FAE06811
:1003F00003F096FF0146074800F072FA044800F047
:10040000F1FA142000F054FBECE700BFC802001022
:10041000380300109802001008B50A4C4FF0FF3165
:10042000094800F0DBFA206903F07AFF014607482B
:1004300000F056FA044800F0D5FA142000F038FB1A
:10044000ECE700BFC80200104C0300109C03001032
:1004500008B50A4C4FF0FF31094800F0BFFA606957
:1004600003F05EFF0146074800F03AFA044800F046
:10047000B9FA142000F01CFBECE700BFC802001022
:1004800060030010B00300102DE9F041DFF8408058
:100490000D4F0E4803F020FA05460C4803F01CFAF5
:1004A000064605EB850408EB84044FF0FF31204637
:1004B00000F094FA204647F8256000F093FA1420E3
:1004C00000F0F6FAE5E700BFC80200108002001055
:1004D000FC02001010B50446064B403003F1180131
:1004E00003F14C0223602164626403F0D7F92046D3
:1004F00010BD00BFA0700000A0F14000FFF7EABFF0
:10050000A0F14400FFF7E6BF10B5044603F017FA68
:10051000204610BD38B5054CA4F1A0052046143C7A
:1005200000F064FAAC42F9D138BD00BF8803001076
:1005300010B5054C04F1140000F058FA2046BDE84F
:10054000104000F053BA00BF1402001070B5022131
:10055000174803F0B5F90821154803F0B1F9002157
:100560000C46144D124803F0ABF9214610482C609C
:1005700003F0A6F901210E4803F0A2F90C4801216D
:100580006C6003F09DF90C4DFF262146084803F0EE
:1005900097F9052C4FF000010548C4BF012104481C
:1005A00045F8046F013403F08BF9082CEDD170BDD0
:1005B00080020010C4030010C402001030B531489E
:1005C000ADF54B7D4FF4E13103F0D8F82E4803F040
:1005D00083F9C0B2FF28F9D100244FF40065FFF77A
:1005E000B5FF2246234629490095019402A800F050
:1005F00021FA2246234626490095019416A800F0C8
:1006000019FA224623462349009501942AA800F0AE
:1006100011FA224623462049009501943EA800F095
:1006200009FA224623461D490095019452A800F07C
:1006300001FA224623461A490095019466A800F063
:10064000F9F9224623461749009501947AA800F04B
:10065000F1F9224623461449009501948EA800F032
:10066000E9F922462346114900950194A2A800F019
:10067000E1F90095019422462346B6A80C4900F002
:10068000D9F9FEE74002001080020010B902000014
:10069000F902000069020000390300007103000044
:1006A000A9030000E1030000190400005104000048
:1006B0008904000010B50446074B403003F11801CF
:1006C00003F14C0223602164626403F0E7F82046E2
:1006D00003F035F9204610BDA0700000A0F14000E5
:1006E000E8E700BFA0F14400E4E700BF38B5244AC2
:1006F000002324492448FFF717FD2448244901F02A
:100700007DFD2449244800F0D5F82449244800F010
:10071000D1F82449244800F0CDF82449244800F0B9
:10072000C9F82449244800F0C5F82449244800F0B9
:10073000C1F8244800F032F9234800F02FF90020D6
:100740002249234A03F0F6F8224C04F1A005204682
:10075000143400F023F9AC42F9D11F491C4A00209F
:1007600003F0E8F81D491E4A00231E4803F026F84E
:10077000BDE838401B481C49154A03F0DBB800BFF0
:1007800001C0092000C00920AC0200103C0200108A
:1007900017C0092045C00920B402001044C0092038
:1007A000CC03001043C00920E802001042C0092019
:1007B0009802001041C009209C03001040C009208D
:1007C000B0030010140200102802001031050000D0
:1007D000C8000010FC0200101505000002C009202E
:1007E00003C0092040020010D504000000000000F2
:1007F0002DE9F047D0F808A0054650460C4603F016
:100800001FFA02460B468046894603F0BBF80646AF
:1008100020460F4603F014FA0022254B03F0B0F8EF
:1008200002460B463046394603F05EFA03F06EFC92
:100830000AF100463146074603F064FF08B330462C
:1008400003F0FEF98046894617A3D3E9002340460A
:10085000494603F097F803F059FC0146284602F098
:100860000FF82046002103F04DFFB0B920464FF0AD
:100870007E5103F065FF08B14FF07E542C61BDE856
:10088000F0875046394603F03DFF0028DCD138465A
:1008900003F0D6F980468946D6E700242C61BDE8EE
:1008A000F08700BFAFF30080FA7E6ABC7493583FB4
:1008B0000000E03F10B5044601F094FF054A064BE6
:1008C0002046A260E3604FF07C51FFF791FF204685
:1008D00010BD00BF6F12033B00007F43000000000B
:1008E000F8B5044685680846E16803F021FE014634
:1008F000284603F069FD05F100463146074603F03E
:1009000001FF28B92846394603F0FCFE80B93E466F
:10091000304603F095F908A3D3E9002303F032F839
:1009200003F0F4FB01462046BDE8F84001F0A8BF03
:100930002E46EDE7AFF30080FCA9F1D24D62403FB7
:10094000074A084808B50021121A04F07BFB01F0A1
:100950007DF904F0C1FA02F09DFE03F05BFF00BFD9
:10096000F8110010F4010010022801DC012070478A
:1009700002F058BEEFF3058303B100BE04F01EBBC6
:10098000EFF3058303B100BE04F020BB08B50120DE
:1009900003F040FF08B5FFF7F9FF00BF10B50446AC
:1009A000002304F1080223726372A372E3722373BB
:1009B0006373A373E37323746374A374E37440F8E1
:1009C000042F00F073FA206008B1204610BD0248E1
:1009D00001F08AFA204610BD286C0000006800F083
:1009E00081BA00BF006800F089BA00BF10B50446A4
:1009F000006800F08FFA204610BD00BF10B5044615
:100A0000064B4068236000F081F994F84C301BB12C
:100A1000606908B102F08CFF204610BD806C0000B8
:100A200010B50446FFF7EAFF204602F088FF204693
:100A300010BD00BF70B5064682B01A4D0698079CDF
:100A4000B160B38135603061B4B10023746186F860
:100A50004C3084083CB17369134D03EB840043F8B8
:100A6000045B8342FBD1114606F1080000F030F927
:100A70007060304602B070BD8408B4F1FE5F94BF70
:100A8000A0004FF0FF30019202F06CFF019A7061FC
:100A900018B1012386F84C30DCE7044801F024FA51
:100AA000019AF6E7806C0000A52E5AE2506C000017
:100AB00000F056B900B5DFF80CC000DFDFF808C061
:100AC00000DFFEE7950C0000AD0C000030B4114DC6
:100AD0002C685CB12289914204D20EE01A898A42C4
:100AE0000DD81C462368891A002BF7D100230181F9
:100AF000036064B1206030BC70472346002489B293
:100B000001811A890360511A1981002CF2D12860E1
:100B100030BC704784060010084A10B412684FF4C5
:100B20007A73541E03FB00404FF6FE71B0FBF2F0E7
:100B3000884228BF08465DF8044B70478C6C000063
:100B400008B500F0CDFF054BFF221B6800209A700E
:100B500001F06AF8024B01221A7008BDBC060010B1
:100B60008006001008B5034B1B780BB9FFF7E8FFB0
:100B7000002008BD8006001038B5EFF305840CB1E5
:100B8000822038BDEFF3148414F0010404D1064B25
:100B90001D782DB1204638BDDFF810C000DF38BD0C
:100BA000FFF7CEFF284638BD80060010650B000019
:100BB00010B588B0EFF3058414B1822008B010BDE1
:100BC000EFF3148404F00304022C1DD0032C14D082
:100BD000012C16D008AC84F309880F4C2478E40764
:100BE00016D5022484F31488BFF34F8FBFF36F8FA1
:100BF000DFF828C000DF08B010BD074C2478E407F8
:100C0000F6D5FF2008B010BD034C2478E407EFD4DC
:100C1000032484F31488E7E7946C0000590F000064
:100C20002DE9F843044650B3036843B38588EB1CB1
:100C30009BB2062B23D883680BB3C268FAB1436317
:100C4000C263894600F060FE104F00F1FF3804F1E6
:100C5000100647F82860291D2268C9B2E074C4F85C
:100C60002C90304600F068FE304600F081FE57F8C8
:100C70002830074A18469B6A5A63BDE8F8838020EB
:100C800000F0D2FF0020BDE8F88300BFFC08001090
:100C9000B50A000008B500F0A7FE18B1024B0138F4
:100CA00053F8200008BD00BFFC08001030B18207D7
:100CB00004D108B503781BB1802008BD802070479F
:100CC000C07800F0D5FEFF280CBF8120002008BDB1
:100CD00070B5EFF3058494B906460D46EFF314841E
:100CE000E40702D4074C24782CB130462946DFF8BB
:100CF00018C000DF70BDBDE87040FFF791BF002055
:100D000070BD00BF81060010210C000010B5EFF38C
:100D100005840CB1822010BDDFF804C000DF10BDD7
:100D2000AD0C000008B558B1421C10D00B4A9042DF
:100D300007D8FFF7F1FE80B200F06EFF402008BD3B
:100D400008BD4FF6FE7000F067FF402008BD4FF66B
:100D5000FF7000F061FF402008BD00BF00093D00AA
:100D600010B5EFF305840CB1822010BDDFF804C08C
:100D700000DF10BD250D0000830704D130B10369E9
:100D8000C1681868704700200146704701467047E7
:100D90002DE9F843174F3D68D5B12B89DFF858800E
:100DA000013B9BB22B814FF001098BB92C68D8F81D
:100DB00000603C6016B13378012B10D06B79012BA9
:100DC00008D085F804901CB123892546002BEDD06E
:100DD000BDE8F88328466989FFF778FEF3E73046D7
:100DE00000F02EFB0028E9D03046294600F02CFB0D
:100DF000E4E700BF84060010DC09001010B540B124
:100E0000046834B1237823B9204600F0E1FB204682
:100E100010BD802000F008FF002010BD820706D121
:100E200028B138B50378032B03D0802038BD80204B
:100E300070474B1C0D46044615D00C4B99420AD8FE
:100E40000846FFF769FE81B2204600F063FC0128E6
:100E500004D0002038BD4FF6FE71F5E7002D14BF19
:100E6000C120812038BD4FF6FF71EDE700093D003C
:100E7000820708B503D110B10378032B01D080207D
:100E800008BD00F0E9FBFF280CBF8120002008BD51
:100E900010B510F0030403D110B10378032B01D077
:100EA000802010BD00F09CFB204610BD30B5EFF354
:100EB000058484B90546EFF31484E40702D4074C93
:100EC000247824B12846DFF818C000DF30BDBDE823
:100ED0003040FFF793BF002030BD00BF81060010F7
:100EE000FD0D000010B5EFF305840CB1822010BD9C
:100EF000DFF804C000DF10BD1D0E000010B5EFF3D9
:100F000005840CB1822010BDDFF804C000DF10BDE5
:100F1000710E000010B5EFF305840CB1822010BDF6
:100F2000DFF804C000DF10BD910E000010B50446CC
:100F300060B1016851B1406840B1037833B9043100
:100F4000890089B200F018FA606810BD802000F0B6
:100F50006BFE002010BD00BF38B5104D2C78D4B901
:100F600021460F48FFF7E2FF0E4B214618600E485E
:100F7000FFF756FE0D4B21461860204600F03CFD61
:100F80000B4A13689B6A203383F30988146000F0CE
:100F900025FE01232B70002038BD00BF8106001004
:100FA00010010010DC09001018010010E011001001
:100FB000BC060010F0B5044685B030B30378012BB1
:100FC00005D000210A460B46802005B0F0BD4B1C21
:100FD0000D4620D0184B994212D94FF6FE7220468A
:100FE00002A900F0D7F9012822D00024264627467E
:100FF0001024029D2046294632463B4605B0F0BDEE
:101000000846FFF789FD82B2E9E7214622462346DA
:10101000802005B0F0BD02A94FF6FF7200F0BAF9CA
:101020000128E2D140210024264627460C46E0E76D
:10103000002DF7D12946F6E700093D0070B50446BA
:1010400084B01546EFF3058048B908461146DFF82D
:1010500050C000DF84E80700204604B070BD19B11D
:1010600012B90B78012B0AD004AB802243F80C2D67
:1010700093E8070084E80700204604B070BD0846E6
:1010800002A900F0E9F9042808BF102301AE14BF3B
:101090000195019396E8070084E80700DCE700006B
:1010A000B50F000000B50A4C85B001A821684FF0CB
:1010B000FF32FFF7C3FF01981028F6D10298DFF83E
:1010C00014C000DF03460028EFD008469847ECE73D
:1010D000DC090010790D000010B5038B427819432C
:1010E000062A0183438B19D0052A00D010BD11EACE
:1010F0000302FBD04283044621EA0301018300F08E
:1011000003F90123204663700821628B00F07AFE08
:101110002146BDE81040044800F008B801EA030287
:101120009A42E8D010BD00BF8806001030B40578A0
:101130004268013D022D8CBF002501258C78E2B16B
:101140009378A34204D20EE0987884420DD81A46D0
:101150005368002BF8D100234B60516055B930BC67
:1011600000238B607047134602464B605160002D90
:10117000F5D099608A6030BC70470246EBE700BF4B
:10118000436802785968013A022A416007D811B1D0
:10119000002288605A6000229A6018467047002238
:1011A0005A601846704700BF034B00215A6881609F
:1011B00042605860704700BF8806001030B4164C7B
:1011C000E2681AB3A38A994203D822E0D4689CB19A
:1011D0002246948A23449942F8D8D568C560D060E5
:1011E000C468026104B120615B1A9BB28382918A58
:1011F00030BCCB1A938270479BB2CB1A0021C160DE
:1012000030BCD060026193828182704713462246CF
:10121000F3E715462246E1E7A0060010F8B51D4D9C
:10122000EC68002C34D0AB8A013B9BB2AB82002B24
:101230002ED1194F2E4608E0E3686070EB6033B39F
:101240001E61E160216122BB1C46A3682146134850
:101250004FF0000E43B162685A60626812B1936049
:10126000C4F804E0C4F808E0FFF760FFA28A012098
:10127000AA8263780021042BDED13B68B4F816E023
:1012800060707344A382E368EB60002BD8D12361C4
:10129000F8BDF8BDA0060010F80600108806001082
:1012A00083682BB142685A60426802B1936070470C
:1012B000074A5368984205D043B15A68904202D019
:1012C0001346F9E7134642685A607047704700BFFB
:1012D0008806001038B584680CB90CE0A46823783F
:1012E000002BFBD00546FFF7DBFF20462946BDE873
:1012F0003840FFF71BBF4378012B00D038BD014CAD
:10130000F0E700BF88060010036973B1C268DA60B5
:10131000C16859B19A8A30B4858A00242A449A82D5
:101320000B6100230361C46030BC704799820023C5
:101330000361704730B40F4BDC78EFF3108272B664
:101340009A78944208D9551C1A789D70551CAC4265
:1013500014BFEDB200251D7062B6944205D930BCB1
:1013600003EBC203586099607047022030BC00F064
:1013700059BC00BF58090010103900238908012208
:10138000C181027043708370436003814381838114
:10139000704700BF70B585890446CDB14389C289C5
:1013A000181D01339BB254F820009A4208606381F3
:1013B00004BF00236381636813B16378022B1FD0DD
:1013C000EFF3108372B6013DA58162B6002070BDB7
:1013D00016465AB143685BB1184B1968FFF7A6FE71
:1013E0003046082100F0E6FA012070BD012070BDF2
:1013F000124A012112684260536090604170EFE729
:101400002046FFF7BDFE0546002100F0F7FC2289CB
:10141000E189531C9BB2E869994202F1040244F845
:101420002200238104BF002323812846FFF76CFF9D
:10143000284600F09DFA002070BD00BFBC060010D9
:10144000C2898089101A704708B5FFF773FFBDE89D
:10145000084000F0ABB900BF38B583890446ABB192
:101460004289151D50F825500D604178022913D08E
:10147000EFF3108172B6013BA38162B60132E389BA
:1014800092B29342628103D0042038BD184638BD21
:1014900000236381042038BD0021FFF74BFF00F0DB
:1014A00085F9A3896289E3E7426870B50346002A9B
:1014B0004FD046780D46022E044625D0032E02D08A
:1014C000012E10D070BD084600F060F805460028D7
:1014D000F8D02046FFF754FE0446294600F08EFC63
:1014E0000123637007E0FFF74BFE04462A461021F4
:1014F00000F088FC66702046FFF706FF2146BDE835
:1015000070402148FFF712BEFFF73AFE0546002162
:1015100000F074FC2389E9691A1D44F82210EFF3E6
:10152000108272B6A2890132A28162B6E2890133C9
:101530009BB29A42238104BF0023238101232846C2
:101540006B70FFF7E1FE2946BDE870400E48FFF7DB
:10155000EDBD8489C589AC4210D20089061D43F8CF
:101560002610EFF3108172B601349C8162B601300F
:1015700080B2854214BF18811A8170BD0320BDE876
:10158000704000F04FBB00BF88060010EFF31083DF
:1015900072B6026803F001030AB11168016003B971
:1015A00062B61046704700BF81420DD3436899422E
:1015B0000AD2EFF3108372B602680A60016013F07A
:1015C000010003D162B670470120704700207047C8
:1015D000002303220270437043804360836070479E
:1015E000438870B505464BB182684178184B9170BD
:1015F00080681B68984201D0FFF76CFE6B6801267B
:101600008BB12846FFF7BCFD0446002100F0F6FB35
:101610002046FFF779FE667021460E48FFF786FDEB
:101620006B68002BEDD10B4843686BB1084C9A787E
:1016300021688B789A4207D9FFF778FD2368012249
:101640005A70002000F094F90020287070BD00BF8F
:10165000BC0600108806001042882DE9F84312B934
:10166000FF20BDE8F883294E81683468A142F7D194
:10167000013A95B245801DBB437804468B7047689C
:101680009FB3FFF77DFD0746294600F0B7FB4FF0FB
:1016900001083846FFF738FEA760A4F80280BB783F
:1016A000DFF86C9063703168D9F804308A789B78E1
:1016B0009A4208D3384600F05BF92846BDE8F88323
:1016C0000020BDE8F8834846FFF730FD484639461C
:1016D000FFF72CFD3368284683F8018087F80180E6
:1016E00000F046F92846BDE8F88309484268927838
:1016F0009A42E5D9FFF71AFD3368012238465A703D
:1017000000F036F93846BDE8F88300BFBC0600108B
:1017100088060010F8B5438843B9164A12688260FB
:1017200092784270013343800020F8BD114E8768E3
:1017300032689742F6D0D9B10D4693784178044685
:1017400099420FD363684BB120461146FFF7EEFC78
:101750002846092100F02EF90120F8BD626053608F
:101760009460F5E7BB708068FFF7B4FD3268E9E785
:101770000120F8BDBC060010426882B110B5FFF729
:10178000FFFC0446FFF7C0FD01216170204600F018
:1017900035FB2146BDE810400348FFF7C7BC42882F
:1017A00001324280704700BF88060010054B1B784D
:1017B0001BB1054B01221A707047044B4FF0805249
:1017C0001A607047E1030010E003001004ED00E030
:1017D000194A38B510680123184D4370FFF7E4FC2F
:1017E000AB786C7893B91FE0012B19D0FFF7C4FFD9
:1017F000EB7801349C4208BF0024EFF3108372B6EB
:10180000AB78013BDBB2AB7062B66BB105EBC402E7
:1018100050680378002BE7D11189FFF75DFCE7E7FB
:101820009168FFF741FEE3E705486C70FFF7A8FCFD
:10183000BDE8384000F094B8BC060010580900100C
:1018400088060010094B70B409481E68094D0A4B00
:1018500000240A4A07212E600460196013684FF0C3
:10186000FF3043F07F43136070BC70479C6C0000F6
:1018700018E000E014E000E010E000E020ED00E0FF
:10188000704700BF0B4A08B5106801234370FFF78B
:101890008BFC00F0C7FA084A136801331360FFF7A6
:1018A000BDFCFFF775FA0548FFF76AFCBDE8084084
:1018B00000F056B8BC060010F806001088060010AC
:1018C000084B1B68DA78012A0AD0DA6A9B6A9A42C6
:1018D00003D81268044B9A4202D0012000F0A2B94A
:1018E000704700BFBC060010A52E5AE208B5044898
:1018F000FFF746FC034A02235060437008BD00BF57
:1019000088060010BC060010094B188858B1094A17
:1019100013684BB1012302E052F8041F29B10133CF
:101920008342F9D90020704701231846704700BF51
:10193000886C0000FC08001030B400240125817080
:101940004570047044608460C46004618482C48211
:101950000483448380F82040114630BC00F026BA4E
:10196000024A022350604370704700BFBC0600105B
:10197000C8B138B50D4D81782B689A78914207D857
:10198000012343700146BDE838400948FFF7CEBB4C
:1019900004461846FFF708FC2A680121022351700B
:1019A0006C60637038BDFFF7A1BF00BFBC060010BC
:1019B0008806001098B138B54FF6FF7398420D466F
:1019C000074C03D001462068FFF7F8FB2368054861
:1019D0005D70FFF7D5FB02236060437038BD704730
:1019E000BC06001088060010024B186800B1C078D1
:1019F000704700BFBC06001038B548B9184C2368C2
:101A00009970184843689B788B421ED8002038BDD7
:101A1000154B1B88984201D9FF2038BD134B013864
:101A200053F82050002DF7D00D4CA97023689D422B
:101A3000E7D02846FFF74EFC6B78012BE6D109482A
:101A4000FFF79EFBFFF794FFE0E72168FFF76EFBCF
:101A5000236801225A70FFF749FF002038BD00BFFC
:101A6000BC06001088060010886C0000FC080010FE
:101A700070B5184D2E68D0B1F378834217D0164B4D
:101A80001B88984201D9FF2070BD144E441E56F8A1
:101A90002450002DF7D02846FFF702FC2846FFF718
:101AA00033FC002346F824301846EB6270BD002456
:101AB000747000F0EAF8B062FFF702FF2A68074985
:101AC000D3782C60013B41F82340D462FFF70EFF2E
:101AD000204670BDBC060010886C0000FC08001099
:101AE000F8B5304B198839B1002318462E4A013316
:101AF000994242F8040BFAD12C4B2D4C1F882D4AE9
:101B0000002501232046FF262B496762E670E2622A
:101B100063702570A5706560A560E5602561A5828C
:101B2000E5822583658384F8205000F03FF9234B3C
:101B3000234A1E78DFF8A0E0224B23480227CEF884
:101B4000004067700421D670157055701970DD6003
:101B50001D619D824560017000F058F91B4B1A68A9
:101B600042F47F021A601B681B0203F07F43DB43D1
:101B7000B3FA83F3164ADBB21268C3F10803C2F367
:101B80000222934200DC531C12486FF080710268FD
:101B900001FA03F322F07F4203F07F431343036013
:101BA000F8BD00BF886C0000FC080010966C0000B7
:101BB000C4060010FC060010211C0000986C0000F8
:101BC00058090010A00600108806001020ED00E063
:101BD0000CED00E01CED00E0BC06001008B5FFF7BE
:101BE00031FE0C4B0028186012DB00F16040FF2230
:101BF00000F5644002701A68012153119B0003F143
:101C0000604302F01F0203F5614301FA02F21A6019
:101C100008BD00BFB80600100321FFF7CBBE00BF10
:101C2000FEE700BF00F026B900B9704700F022B906
:101C30000449054AC1F1805303F5F8439360D1602C
:101C4000704700BFF8110010CC00001000200021E8
:101C500004460D46094802F0C3FD03F03DF9204655
:101C60002946FEF789FFFFF7E3FF05480021FFF74C
:101C70002FF8FEF79DFF02F0CDFD0000314C000073
:101C8000CC00001080F309887047EFF3098070479B
:101C9000684680F309883F480078C00714BF0220D7
:101CA000032080F314887047DFF8ECC0EFF305835E
:101CB0001B0618BF6047EFF31483DB0708BF6047BC
:101CC00000DF7047DFF8D4C0EFF305831B0618BFB1
:101CD0006047EFF31483DB0708BF604700DF7047FE
:101CE000EFF30980816911F8021CF1B990E80F1037
:101CF000E047EFF3098C8CE80700294B93E80600D6
:101D000091420FD039B12CE9F00FC1F828C00CB4C2
:101D1000FFF7D6FD0CBC1A60D2F828C0BCE8F00F63
:101D20008CF309886FF0020E704710B51D4A1268D7
:101D3000914209D81C4C54F8214090E80F10A0475C
:101D4000EFF3098C8CE80F0010BDFFF741FD144B39
:101D500093E80600914210D0EFF3098C2CE9F00FC4
:101D6000C1F828C00CB4FFF7ABFD0CBC1A60D2F868
:101D700028C0BCE8F00F8CF309886FF0020E7047A2
:101D8000FFF780FDFFF7E3BFFFF77AFDFFF77AFD6E
:101D9000FFF7DDBF946C00008D150000A915000051
:101DA000BC06001000000000FCFFFFFFF0B4456A15
:101DB000C66A25F0030535446B0748BF043D4FF064
:101DC000807305E90A00A5F14007A5F14403A5F1D8
:101DD0000C04002243F8042FA342FBD1C36945F849
:101DE000203CC3788762012B18BF034B016318BFE7
:101DF0003360F0BC704700BFA52E5AE2836A1962B7
:101E0000704700BF836A19625A627047034A044BE5
:101E100011680022D9801A60704700BF906C0000E2
:101E2000E411001008B5104A104B114958681368A6
:101E3000834215D0D3880968013B0B449BB21060E4
:101E4000938089B2994200D008BD002307481360EF
:101E5000FFF796F9BDE8084001460448FFF766B968
:101E600093880968EDE700BFE411001088060010B0
:101E7000F806001000B599B072B61749684600F030
:101E800057F806A8154900F053F80CA8144900F0BB
:101E90004FF812A8134900F04BF8039A01990A9BD6
:101EA00011600799109A19600D99159B1160139A8A
:101EB00096201A6000F022F9049A0199099B11609A
:101EC00007990F9A19600D99169B1160139A962025
:101ED0001A6000F013F9E0E732C0092034C009208D
:101EE00035C0092037C009200FB400B5064A83B0B9
:101EF00004AB53F8041B10681A46C068019303F042
:101F000073FA012002F086FCE001001038B50D469E
:101F1000044600F00FFA013509D02046002100F0F8
:101F20002BFA2046BDE83840032100F021BA38BD25
:101F300038B50D46044600F0FDF901350CD0236993
:101F4000626820461A60012100F016FA2046BDE8BA
:101F50003840022100F00CBA38BD00BF70B50D4604
:101F60001646044600F0E6F9013511D066B923693A
:101F700062681A602046012100F0FEF92046BDE8A3
:101F80007040022100F0F4B9E36862681A60F1E77A
:101F900070BD00BF00F066B8431C10B5044618D0F1
:101FA0000B68581C04D10FE051F80C3F5A1C0BD0A1
:101FB0009C42F9D12046896800F07CFB2046BDE8B0
:101FC0001040022100F092BB0248BDE81040FFF72C
:101FD0008BBF10BDA06C000088420AD0421C09D003
:101FE000013106D008B50448FFF77EFF4FF0FF30FF
:101FF00008BD704708467047B46C00000B685A1C57
:1020000004D107E051F80C3F5A1C03D08342F9D1A8
:102010004868704718467047421C0ED008B50B68D8
:102020005A1C04D10AE051F80C3F5A1C06D09842C1
:10203000F9D14868411C01D008BD70470248FFF73C
:1020400053FF4FF0FF30F7E7C86C000030B585B0A4
:1020500018246D4620462946ABBE0446204605B0EE
:1020600030BD00BF024B186800F00100704700BF90
:10207000F0ED00E0036870B5DB68054698476B68D3
:102080005B6883B12A681C6853689847201A002847
:102090006A680DDC50681168836853600029F0D0CD
:1020A00040688847EBE72B68BDE870409B6818479D
:1020B0002B6852681B691068BDE87040184700BF64
:1020C0000148FFF7D7BF00BF1C6D000038B50546BB
:1020D00001F026F8044601F023F8001BA842FAD3C9
:1020E00038BD00BF08B5044902F06EF902F032FBBA
:1020F000BDE80840FFF7EABF002474494FF47A7343
:1021000003FB00F0FFF7E2BF0C4B30B49D689A6808
:102110002B46B2F1805F0CD2094AC43553F8044B08
:10212000AB4242F8044FF9D14FF080521346034CB2
:10213000A260103043F8201030BC704700ED00E082
:10214000FCFFFF0F2B4A2023F0B4C2F8A031D2F8D5
:10215000A031980645D4274B002519460124AA2012
:10216000552202270B26C3F80471C3F8A851C3F8FF
:10217000AC51C3F80C41C3F88460C3F88C00C3F8B9
:102180008C20C3F88040C3F88C00C3F88C20D1F8B1
:102190008830184A5B01FAD511460324AA2055233A
:1021A000C2F88040C2F88C00C2F88C30D1F8883078
:1021B000104A13F0407FF9D00F4900230520C2F8E0
:1021C0000801C2F8C410C2F8C8311368F0BC23F487
:1021D000704323F03A0343F4405343F03A0313604F
:1021E0007047D2F8A0315906B5D4D2F8A0315906BB
:1021F000F7D5B0E700C00F40DE87280470B50D4664
:10220000184C064621462846FFF706FF164A30704E
:10221000D2F8C430154E43F48053C2F8C430D2F81B
:10222000A831134923F04073C2F8A831D2F8A801AD
:10223000104B40F08070C2F8A80132680E4E114475
:10224000CA4383FB0103D20F0B44C2EBE3531B02CF
:1022500043F40013284621463360BDE87040FFF781
:102260009BBE00BF246D000000C00F405C01001049
:102270003F5DC600A5E830A5004003402B4B70B57C
:102280001A461968007821F0FF01196019680125C4
:10229000854029431960196841F0807119605068C0
:1022A000224B0028FBDA1A461968C0F30B1021F004
:1022B00080711960196821F0FF01196019682943BC
:1022C0001960196841F08071196053681749002B33
:1022D000FBDA0C460E68C3F30B1226F080730B601A
:1022E0000B6823F0FF030B600B681D430D600B6848
:1022F00043F080730B6063680C49002BFBDA0C68B9
:10230000904224F08074C3F30B130C6002D9014691
:1023100010460A46934228BF1346984238BF1846D3
:1023200001F0FAFF024902F04FF870BD004003408F
:10233000010880394A1C016018D038B50C460546A2
:102340000846002100F0B6F924F01F0104F01F0236
:102350000123934001F1180401F11C0001F1140262
:10236000A9606B60EC6028616A6138BD704700BF8E
:10237000006800F0BBB900BF41B1012905D18268F6
:10238000436811680B431360704770478268416867
:10239000136823EA01031360704700BFF8B50646CF
:1023A0000D46084624491446FFF736FE23490746E2
:1023B0002046FFF731FE01463846FFF70DFE204B61
:1023C0000246984230602ED003F58823984222D0EE
:1023D000A3F50423984216D01A4B1B491B683C27CF
:1023E0001B0AA1FB031340269B0953612846136176
:1023F000114997611660FFF7CFFD2046BDE8F84010
:102400000E49FFF7C9BD1149D1F8C43043F080032C
:10241000C1F8C430E0E70D49D1F8C43043F080631F
:10242000C1F8C430D8E70949D1F8C43043F40023D7
:10243000C1F8C430D0E700BF906D0000CC6D000043
:1024400000C005405C010010632D3E0500C00F4038
:10245000044B49001B6802689B08B3FBF1F1516112
:10246000116170475C0100102DE9F04304683C25C0
:1024700007462420A561A6462060534D01E0013D9A
:1024800002D026683607FAD5606820251028A56195
:1024900010D008280ED01023082223604A4BA261D6
:1024A00001E0013B02D02268D506FAD46FF00100AA
:1024B000BDE8F08341F001010820A1604249A0611C
:1024C00001E0013902D025682807FAD56168402962
:1024D0000ED01023082223603B4BA26101E0013B98
:1024E00002D02268D606FAD44FF0FF30BDE8F08360
:1024F000581E0028D8BF4FF0000C1FDD844602F1A3
:10250000FF3E00264FF004094FF00808C4F8009081
:102510002D49C4F8188001E0013902D025682D0743
:10252000FAD5A568616850292CD1013686420EF88B
:10253000015F01D03C68E9E7D7F800E004210824F6
:10254000CEF818102049CEF8184001E0013903D028
:10255000DEF800402507F9D5DEF80840DEF8041063
:1025600058291DD010230822CEF80030164BCEF883
:10257000182001E0013B11D0DEF80020D406F9D488
:10258000BDE8F0831023082223600F4BA26101E015
:10259000013B02D02268D706FAD43046BDE8F0836A
:1025A00002F80C40079A5AB13868102208210260DC
:1025B000054A816101E0013A02D00168C906FAD4F6
:1025C0001846BDE8F08300BFA186010070B404681E
:1025D0003C252420A561364D206001E0013D02D05C
:1025E00026683007FAD5606820251028A56110D02C
:1025F00008280ED01023082223602D4BA26101E091
:10260000013B02D02268D606FAD46FF0010070BCFC
:10261000704701F0FE010820A1602549A06101E09A
:10262000013902D025682D07FAD5616818290ED026
:102630001023082223601E4BA26101E0013B02D05F
:102640002268D006FAD44FF0FF3070BC7047002BE0
:1026500013DD551E0020082615F8011F144AA1603D
:10266000A66101E0013A02D021680907FAD5626843
:10267000282A11D101309842EED1039A52B110228A
:10268000082122600A4AA16101E0013A02D02168D2
:10269000C906FAD41846BAE7102308222360044B6F
:1026A000A26101E0013BB2D02268D506FAD4AEE7C0
:1026B000A186010000F16040A0F51C2003099B00E9
:1026C00003F1804303F5303300F00F0010B44000F5
:1026D0001C680322824024EA02021A601A688140C0
:1026E0000A431A605DF8044B704700BF00F1604078
:1026F000A0F51C2043099B0003F1804303F5303310
:1027000030B400F01F029C6EC1F3800505FA02F29E
:1027100024EA02049C669C6E22439A6695B90309DA
:102720009B0003F1804303F5303300F00F001C6C75
:1027300040000322824024EA02021A641A6C81409B
:102740001143196430BC704770B50C460546002132
:10275000204601F0D7FFF0B920464FF07E5101F03E
:10276000EFFF08B14FF07E540C4EB06901F0D4FD7C
:10277000214601F029FE02F013F8B36907498342AC
:102780002B6808BF0130186028790A6D0123834047
:1027900013430B6570BD0024E6E700BF00800140D5
:1027A0000E4B0F4A1B6810B403FB01F10224546066
:1027B000916193693BB100680368926903FB01F181
:1027C000B1FBF2F10160064B09211A6D5DF8044B73
:1027D00042F001021A655960704700BFEC03001017
:1027E00000800140F8B50E461E4D0446294630468D
:1027F000FFF712FC1C491D4FD1F8C430C2B257F884
:10280000227043F0400320712760C1F8C430D1F832
:10281000A801174B4FF0000E20F440500227C1F8DA
:10282000A801C3F80CE05F61D96C0120083200FAFE
:1028300002F20A430F49DA640B680F490F4AA1FB01
:10284000031320461B0D44F620611360FFF7A8FF19
:1028500020460021FFF778FF30462946BDE8F840C2
:10286000FFF79ABB086E000000C00F406001001027
:10287000008001405C01001083DE1B43EC0300106C
:1028800010B5044608460C4901F09EFD01F062FFB8
:102890000A4B0B4A1B68926903FB00F023689042C5
:1028A00008BF01300649186020790A6D0123834072
:1028B00013430B6510BD00BF00247449EC030010E6
:1028C00000800140174B9968C1F34201012918D0DB
:1028D000022914D1144A516F013106D0D2F8801068
:1028E000906F086092F8A61091B1106F0E4BB8B1BE
:1028F00093F8A63023B10D4B00211B681847704791
:102900007047094B186F0028FAD0084B1B6818470E
:10291000596821F001015960106F034B0028E7D17D
:10292000704700BF00800940F8030010F403001056
:1029300070B50368284CA34247D03FDD274CA34223
:1029400029D004F58044A34242D1254C082632BB4D
:1029500001290BD04268234CC2EBC20204EBC20235
:1029600092F8364030325279D44213D1B1FA81F420
:102970005D68012202FA01F125EA0101596003684C
:1029800064095B6802FA04F1194203D1164BB240A4
:10299000C3F8802070BD154C0726002AD8D05A688D
:1029A000012505FA01F10A4376B25A602146304604
:1029B000FFF7AAFB0C4BB5401D6070BDA4F5804429
:1029C000A34205D10A4C0526C1E70A4C0626BEE7FC
:1029D00000242646BBE700BF0000014000800940FC
:1029E000F9290000F803001000E100E0C52800000C
:1029F0006D2A0000D52A0000194B9968C1F34201E5
:102A000001291BD0022917D1164AD2F8AC10013186
:102A100007D0D2F8B810D2F8B000086092F8DE10F3
:102A2000A1B1D2F8A8000F4BC8B193F8DE3023B1A2
:102A30000D4B00211B68184770477047094BD3F8AE
:102A4000A8000028F9D0084B1B681847596821F0E6
:102A500001015960D2F8A800024B0028E5D1704767
:102A600000C00940F8030010F4030010164B9968E9
:102A7000C1F34201012917D0022913D1134A516829
:102A8000013105D011699068086092F8361091B153
:102A900010680E4BB8B193F8363023B10C4B0021BF
:102AA0001B68184770477047084B18680028FAD011
:102AB000074B1B681847596821F0010159601068DD
:102AC000024B0028E7D1704700C00040F803001017
:102AD000F4030010164B9968C1F34201012917D085
:102AE000022913D1134AD16B013105D0916C106CBE
:102AF000086092F86E1091B1906B0E4BB8B193F8DC
:102B00006E3023B10C4B00211B681847704770478B
:102B1000084B986B0028FAD0074B1B681847596878
:102B200021F001015960906B024B0028E7D17047FA
:102B300000000140F8030010F40300102DE9F04FED
:102B400002686A4B89B09A420790069200F0BC80F6
:102B500040F3A780664B0698984200F0898003F501
:102B6000804398420CD1634BD3F8AC2122F440222D
:102B7000C3F8AC21D3F8AC2142F48022C3F8AC21D5
:102B80005D4A0B011268B2FBF3F003FB10230392C2
:102B900080B2002B00F08380039B4FF001085A00A5
:102BA0009C009446A246C3468E4699460023049252
:102BB000059400900291019300242546029E5FFA3D
:102BC00088F7BCF1000FB5BFBCFBF6F0BAFBF6F01E
:102BD000000940090130C0F34F0008EB040200284F
:102BE00054D1002C7ED00220034603FB02F3DB000D
:102BF000B9FBF3F30133C1EB5303002BB8BF5B42C6
:102C0000734505DA8B4246D09E46BB468DE82100CF
:102C10000134E5B2BD420E44D3D3039B08F1010851
:102C20009944049BB8F1100F9C44059B9A44029B65
:102C30000B440293C0D1019B009843EA0B15EDB2FF
:102C40000699C0F307220B7BC0B243F080030B73DD
:102C500007990B681A710B6818700B6883F8285075
:102C60000A68137B03F07F03137309B0BDE8F08F8C
:102C7000204BD3F8AC2122F44032C3F8AC21D3F876
:102C8000AC2142F48032C3F8AC2179E7002CABD000
:102C90000128A9D8A7E745EA0715EDB2D0E7102526
:102CA000CEE7A3F580439A427FF46AAF114BD3F885
:102CB000A82122F0C002C3F8A821D3F8A82142F02D
:102CC0004002C3F8A8215BE70A4BD3F8A82122F4FD
:102CD0004072C3F8A821D3F8A82142F48072C3F847
:102CE000A8214DE7012003467FE700BF0000014017
:102CF0000080094000C00F405C010010436810B420
:102D00000448054CC3EBC30344F8332001605DF86D
:102D1000044B7047F4030010F80300100268137DA1
:102D2000DB07FCD543680949C3EBC30301EBC303CD
:102D3000596810780131C0B206D059699B680B60A0
:102D4000536843F001035360704700BFF80300105D
:102D50004368174AC3EBC303DB00D11810B4CC6936
:102D6000013411D00B460A6B1C335B6812681A429F
:102D700003D000205DF8044B704703685DF8044BF6
:102D8000187DC0F38010704703681B7D9B0608D434
:102D900091F834005DF8044B0F288CBF002001200F
:102DA0007047002381F8343001205DF8044B7047F0
:102DB000F803001038B504460D462046FFF7C8FF5B
:102DC0000028FAD02368EDB21D706368054AC3EB92
:102DD000C30302EBC30393F83420013283F8342099
:102DE00038BD00BFF80300102DE9F04F04464648F7
:102DF000256883B085420F469146019343D0D4F8AD
:102E000004A000255346414E4FEACA08C3EBC30352
:102E1000CAEB080E002006EBCE0E4FF0FF3B06EB90
:102E2000C3030146024683F83500CEF81CB02046A5
:102E3000CEF804B0FFF77CFD17B903B0BDE8F08F02
:102E400033494846FFF7DAF8324983460198FFF7DD
:102E5000D5F8BB1E012B37D9012FEED1B9F1FF3FB9
:102E6000EBD0294B226807219B45117213D195B1F4
:102E700048462B7C264943F040032B7403B0BDE841
:102E8000F04FFFF789B82B7CD4F804A003F03F0380
:102E90002B746368B7E7CAEB080806EBC80049461D
:102EA000012504300022FFF759F820462A466368BE
:102EB0000021C3EBC30306EBC30686F8355003B00D
:102EC000BDE8F04FFFF734BD019B01330AD00E4B34
:102ED00098420DD0CAEB080006EBC00001991C30E7
:102EE000FFF714F8032FA8D1B9F1FF3FB9D1A4E738
:102EF000002DEFD02B7C019843F080032B74054903
:102F0000FFF74AF8EEE700BF00000140F8030010A9
:102F1000BC6E0000B86F00002DE9F04105460F4679
:102F2000084659491646FFF777F85849044630468F
:102F3000FFF772F801462046FFF74EF8544B04465F
:102F4000984228607FD06FD9524B98424BD003F5FE
:102F50008043984206D1504AD2F8C43043F00073FF
:102F6000C2F8C430012323722B684FF00008C3F865
:102F7000048028464FF41651FFF7E0FD2B6803222A
:102F80001A7338464049FFF707F830463F49FFF7C4
:102F900003F87A1C03D038464146FFF7A7FB731CA1
:102FA00003D030460021FFF7A1FB394B9C4247D0AC
:102FB00021D9384B9C4263D003F580439C424AD1CF
:102FC00003236B60354CC3EBC3034FF0FF3604EBB8
:102FD000C3042846324633466660E6610021BDE8F8
:102FE000F041FFF701BF2C4AD2F8C43043F08073A0
:102FF000C2F8C430B6E7A3F580439C422BD1274EDC
:103000004FF0FF3400216960224623462846746051
:10301000F461FFF7E9FE224B01221A602868696813
:10302000204B03C3BDE8F081A3F58043984299D1BA
:10303000194AD2F8C43043F00803C2F8C43091E70B
:1030400001236B60BEE7144AD2F8C43043F010038A
:10305000C2F8C43086E76E68104BC6EBC6064FF068
:10306000FF3703EBC6063A463B4628460021776009
:10307000F761FFF7B9FE0C4B9C42CCD0BDE8F08164
:1030800002236B609EE700BF4C6F0000E06E000003
:10309000000001400080094000C00F40F80300100C
:1030A000F0030010EC11001000C0004038B51249C8
:1030B000124B01241C60D1F8C430114A43F40003C0
:1030C00010480025C1F8C4301567036801F1437149
:1030D00001F5F45103319B08A1FB03139B0C013B49
:1030E000022151600420D36007495460FFF70CF8B7
:1030F000064B10221A6038BD00C00F40D8040010E3
:10310000004009405C010010C120000000E100E027
:10311000024B1B6803B17047FFF7C8BFD80400100B
:1031200008B5044B1B680BB9FFF7C0FF024B98684A
:1031300008BD00BFD804001000400940034B98614F
:103140005A6942F001025A61704700BF00400940CD
:10315000024A536923F0010353617047004009405C
:10316000014B01221A60704700400940094A8368F8
:10317000026053B1084B1A68824201D106E01A4638
:1031800053688342FBD143685360704742681A60BA
:10319000704700BFE86F0000DC0400100C4A836831
:1031A00010B50446026053B10A4B1A68904201D12F
:1031B0000AE01A4653689C42FBD16368536020467C
:1031C00000F0BDFB204610BD42681A60F7E700BF63
:1031D000E86F0000DC04001010B4074C00230273F9
:1031E00081600460436019B1044B1A681860426042
:1031F0005DF8044B704700BFE86F0000DC0400106E
:10320000F8B50B4B07461C680E467CB1A56855B156
:1032100028463946324602F05CFE20B9284602F0C4
:1032200050FEB04202D06468002CEFD12046F8BDB9
:10323000DC040010007B7047036870B51B69002137
:10324000012204469847431C06460ED023682046B8
:103250001B690021022298470546236831461B69F5
:10326000204600229847284670BD70BD10B5044620
:10327000064B002240F8043BFFF7AEFF044B20460C
:1032800003F10802343384E80C0010BD50700000D4
:10329000F06F000010B50446064B03F1080234330A
:1032A000226040F8043FFFF761FF204600F0C8F8B5
:1032B000204610BDF06F000038B500230360436066
:1032C0000A7804462F2A01D0204638BD4A78002AC1
:1032D000FAD0481C20604D782F2D13D085B10346BD
:1032E00000E06AB15D1A013323601A782F2AF8D101
:1032F000294601332360FFF783FF6060204638BD15
:103300002946F8E719460346F3E700BF006870470F
:10331000436843B110B504461846FFF78BFF0128F8
:1033200003D1606810BD00207047002010BD00BFB1
:10333000406830B108B5FFF77DFFB0FA80F0400972
:1033400008BD704743684BB110B504461846FFF7F7
:1033500071FF28B9606818B1043810BD00207047AB
:10336000002010BD4068003018BF0120704700BF2A
:1033700038B50446044B002505604360FFF70EF89E
:10338000024B20461C6038BDA0860100E0040010FE
:1033900010B504464160FFF75BF8014B1C6010BD9F
:1033A000E004001038B5054D2A68824204D0044676
:1033B0004168FFF74DF82C6038BD00BFE0040010F5
:1033C0002DE9F0411D460F461646804682B09DF815
:1033D0002040FFF7E7FF84F001040094404639469F
:1033E00032462B46FFF7F2F8281A18BF012002B028
:1033F000BDE8F0812DE9F0411D460F461646804696
:1034000082B09DF82040FFF7CDFF84F001040094C6
:103410004046394632462B46FFF726F8281A18BF91
:10342000012002B0BDE8F08102480349034AFFF7DA
:1034300073BD00BFEC11001002C0092003C00920B9
:10344000084A094B10B4026003F58071002453F858
:10345000042F824208BF1C608B42F8D15DF8044BF8
:10346000704700BF50700000E0040010F0B50E4639
:1034700085B03749054602F01AFD28B9354B1B685F
:10348000002B42D005B0F0BD2846334902F00FFDB5
:1034900030B9304B1B68002B42D0012005B0F0BD85
:1034A00028462E4902F003FD002834D02C4B00247E
:1034B00002E00134402C3CD053F8042F002AF8D10C
:1034C0002B783A2B3CD0294602A8FFF7F5FE02A83C
:1034D000FFF748FF68B302A8FFF72AFF20BB02A846
:1034E000FFF716FF054620B3036802A89F68FFF7A1
:1034F0000DFF324601462846B8470346CBB1194A6C
:10350000E01C42F8243005B0F0BD0190FFF78CFFBD
:10351000019805B0F0BD0F4B1B686BB10220B1E7FD
:10352000FFF782FF0120ADE702A8FFF70BFF03467C
:10353000E4E74FF0FF30A5E7FFF776FF0220A1E7B1
:103540002846094902AA02F043FC029BD6E700BFC5
:103550002C700000F00300103C700000347000007C
:10356000E0040010E40400107470000002280ADD7A
:10357000074AC31E52F82300002142F8231020B14D
:1035800003685B681847002070474FF0FF307047B2
:10359000E4040010022812DC0E4B70B51B680C46C8
:1035A00016460BB9FFF740FFA51936B114F8011BF9
:1035B0000948FFF7FFFBAC42F8D1304670BD074B1E
:1035C000033853F8200010B103681B6818474FF008
:1035D000FF307047F0030010EC110010E4040010FD
:1035E00002280DDC0C4B10B51B680C460BB9FFF71D
:1035F0001BFF0A48FFF792FB01232070184610BDFD
:10360000074B033853F8200010B103689B68184734
:103610004FF0FF3318467047F0030010EC11001014
:10362000E4040010022807DD064B033853F820009D
:1036300020B10368DB681847012070474FF0FF3066
:10364000704700BFE4040010022807DD064B033872
:1036500053F8200020B103681B6918470020704709
:103660004FF0FF30704700BFE4040010022808B597
:1036700004D84FF400534B60002008BD01F0C4F89B
:10368000092303604FF0FF3008BD00BF704700BF43
:10369000704700BF08B5FFF7FBFFFFF7F7FFBDE876
:1036A0000840FCF78BBF00BF074A13681918EFF3F7
:1036B0000880814202D2184611607047034B0C22E9
:1036C0001A604FF0FF3070477C010010F4110010B9
:1036D0000A4C08B523680546986801F0B7F92368D5
:1036E000D86801F0B3F9FEF755FC20B905B9FEE73B
:1036F000FEF7C0FBFBE7FEF7A9FCF7E7E0010010CF
:10370000002102F0B0BA00BF01F0DEB94A1C02EBA2
:10371000420200EBC202936853B101EB4101C900C0
:103720004218D2681AB10144103110461847704748
:1037300001EB410300EBC301CB68002BF7D0184726
:1037400070B504460B4E0023251D4FF41650E06360
:1037500063602846A360E36023626362A36326601C
:10376000FFF7DAFB284622460349FFF7C7FA20464F
:1037700070BD00BF907000000D37000038B50446E2
:103780000D460430FFF7DAF9E56338BD0430FFF782
:10379000C5BA00BF10B50C460430FFF70BFB20463E
:1037A00010BD00BFFFF7F2BFA0F14000FFF7FABF66
:1037B000FFF7F0BFA0F14000FFF7FABF38B50446AD
:1037C0001D46FFF7BDFF294604F1400000F044F814
:1037D000054B204603F1080103F120025433216018
:1037E0002264636438BD00BF9870000000207047F9
:1037F000F8B58E18B1420F460ED005460C4601E0D2
:10380000A64207D02B6828465B6A14F8011B98472C
:103810000130F5D1E01BF8BD0C46FBE7F8B58E187A
:10382000B1420F460ED005460C4603E004F8010BEA
:10383000A64205D02B6828469B6A9847431CF5D1C1
:10384000E01BF8BD0C46FBE70020704700207047E6
:10385000002070470020704710B5044684B0FFF781
:1038600005FD0B4B002203F108013C3384E80A00FC
:10387000626101A82246074902F086FA064901A8BA
:1038800001F02AFA6061FFF73BFF204604B010BD4B
:10389000F8700000747000003C71000010B5044620
:1038A000064B406903F108023C3384E80C0001F048
:1038B00017F82046FFF7EEFC204610BDF870000018
:1038C00038B50D460446406901F0C0F828466169E4
:1038D000BDE8384001F02EBA10B50446406901F049
:1038E000B5F86069BDE81040FFF70EBF0649074A0A
:1038F000074B9A42BEBF51F8040B42F8040BF8E79D
:10390000044880470448004738730000C80000108E
:10391000F40100104521000041090000FEE7FEE728
:10392000FEE7FEE7FEE7FEE7FEE7FEE7FEE7FEE76F
:1039300000F005B803460846194600F057BFFDF7EA
:103940001FB810B5002814BF044601242046FDF717
:1039500011F830B900F008F808B9FDF717F88047FA
:10396000F4E710BDFFF7EDBF024B1868BFF35F8FA0
:10397000704700BFE405001081F0004102E000BF85
:1039800083F0004330B54FEA41044FEA430594EA1F
:10399000050F08BF90EA020F1FBF54EA000C55EA5A
:1039A000020C7FEA645C7FEA655C00F0E2804FEA2B
:1039B0005454D4EB5555B8BF6D420CDD2C4480EA0D
:1039C000020281EA030382EA000083EA010180EA3D
:1039D000020281EA0303362D88BF30BD11F0004F8B
:1039E0004FEA01314FF4801C4CEA113102D04042C1
:1039F00061EB410113F0004F4FEA03334CEA1333FC
:103A000002D0524263EB430394EA050F00F0A78013
:103A1000A4F10104D5F1200E0DDB02FA0EFC22FA0E
:103A200005F2801841F1000103FA0EF2801843FA02
:103A300005F359410EE0A5F120050EF1200E012AF3
:103A400003FA0EFC28BF4CF0020C43FA05F3C01831
:103A500051EBE37101F0004507D54FF0000EDCF1AA
:103A6000000C7EEB00006EEB0101B1F5801F1BD353
:103A7000B1F5001F0CD349085FEA30004FEA3C0C57
:103A800004F101044FEA445212F5800F80F09A804D
:103A9000BCF1004F08BF5FEA500C50F1000041EB51
:103AA000045141EA050130BD5FEA4C0C404141EB55
:103AB000010111F4801FA4F10104E9D191F0000F7C
:103AC00004BF01460020B1FA81F308BF2033A3F1FF
:103AD0000B03B3F120020CDA0C3208DD02F1140CF6
:103AE000C2F10C0201FA0CF021FA02F10CE002F131
:103AF0001402D8BFC2F1200C01FA02F120FA0CFC2A
:103B0000DCBF41EA0C019040E41AA2BF01EB045172
:103B1000294330BD6FEA04041F3C1CDA0C340EDC70
:103B200004F11404C4F1200220FA04F001FA02F3B3
:103B300040EA030021FA04F345EA030130BDC4F171
:103B40000C04C4F1200220FA02F001FA04F340EA66
:103B50000300294630BD21FA04F0294630BD94F017
:103B6000000F83F4801306BF81F480110134013DFE
:103B70004EE77FEA645C18BF7FEA655C29D094EA6F
:103B8000050F08BF90EA020F05D054EA000C04BFED
:103B90001946104630BD91EA030F1EBF00210020D8
:103BA00030BD5FEA545C05D14000494128BF41F077
:103BB000004130BD14F580043CBF01F5801130BDDB
:103BC00001F0004545F0FE4141F470014FF0000066
:103BD00030BD7FEA645C1ABF194610467FEA655C17
:103BE0001CBF0B46024650EA013406BF52EA0335B9
:103BF00091EA030F41F4002130BD00BF90F0000FA7
:103C000004BF0021704730B54FF4806404F13204E2
:103C10004FF000054FF0000150E700BF90F0000F9B
:103C200004BF0021704730B54FF4806404F13204C2
:103C300010F0004548BF40424FF000013EE700BF92
:103C400042004FEAE2014FEA31014FEA02701FBF22
:103C500012F07F4393F07F4F81F06051704792F0F4
:103C6000000F14BF93F07F4F704730B54FF460746E
:103C700001F0004521F0004120E700BF50EA0102B9
:103C800008BF704730B54FF000050AE050EA010266
:103C900008BF704730B511F0004502D5404261EBD6
:103CA00041014FF4806404F132045FEA915C3FF417
:103CB000DCAE4FF003025FEADC0C18BF03325FEAB0
:103CC000DC0C18BF033202EBDC02C2F1200300FA65
:103CD00003FC20FA02F001FA03FE40EA0E0021FA8A
:103CE00002F11444C1E600BF70B54FF0FF0C4CF474
:103CF000E06C1CEA11541DBF1CEA135594EA0C0F2A
:103D000095EA0C0F00F0DEF82C4481EA030621EA64
:103D10004C5123EA4C5350EA013518BF52EA03359F
:103D200041F4801143F4801338D0A0FB02CE4FF051
:103D30000005E1FB02E506F00042E0FB03E54FF081
:103D40000006E1FB03569CF0000F18BF4EF0010E79
:103D5000A4F1FF04B6F5007F64F5407404D25FEA75
:103D60004E0E6D4146EB060642EAC62141EA555128
:103D70004FEAC52040EA5E504FEACE2EB4F1FD0C6A
:103D800088BFBCF5E06F1ED8BEF1004F08BF5FEAE8
:103D9000500E50F1000041EB045170BD06F000469A
:103DA00046EA010140EA020081EA0301B4EB5C0447
:103DB000C2BFD4EB0C0541EA045170BD41F480113F
:103DC0004FF0000E013C00F3AB8014F1360FDEBF64
:103DD000002001F0004170BDC4F10004203C35DA40
:103DE0000C341BDC04F11404C4F1200500FA05F3C3
:103DF00020FA04F001FA05F240EA020001F0004264
:103E000021F0004110EBD37021FA04F642EB0601D9
:103E10005EEA430E08BF20EAD37070BDC4F10C0403
:103E2000C4F1200500FA04F320FA05F001FA04F2C7
:103E300040EA020001F0004110EBD37041F10001B3
:103E40005EEA430E08BF20EAD37070BDC4F12005BE
:103E500000FA05F24EEA020E20FA04F301FA05F226
:103E600043EA020321FA04F001F0004121FA04F2CE
:103E700020EA020000EBD3705EEA430E08BF20EA9E
:103E8000D37070BD94F0000F0FD101F000464000D8
:103E900041EB010111F4801F08BF013CF7D041EA5A
:103EA000060195F0000F18BF704703F0004652005E
:103EB00043EB030313F4801F08BF013DF7D043EA2F
:103EC0000603704794EA0C0F0CEA135518BF95EAE5
:103ED0000C0F0CD050EA410618BF52EA4306D1D16C
:103EE00081EA030101F000414FF0000070BD50EA8B
:103EF000410606BF1046194652EA430619D094EA15
:103F00000C0F02D150EA013613D195EA0C0F05D1FE
:103F100052EA03361CBF104619460AD181EA030152
:103F200001F0004141F0FE4141F470014FF000000A
:103F300070BD41F0FE4141F4780170BD70B54FF0A5
:103F4000FF0C4CF4E06C1CEA11541DBF1CEA135525
:103F500094EA0C0F95EA0C0F00F0A7F8A4EB050407
:103F600081EA030E52EA03354FEA013100F08880FE
:103F70004FEA03334FF0805545EA131343EA1263C7
:103F80004FEA022245EA111545EA10654FEA00267C
:103F90000EF000419D4208BF964244F1FD0404F535
:103FA000407402D25B084FEA3202B61A65EB030591
:103FB0005B084FEA32024FF480104FF4002CB6EB4E
:103FC000020E75EB030E22BFB61A754640EA0C00CE
:103FD0005B084FEA3202B6EB020E75EB030E22BF0E
:103FE000B61A754640EA5C005B084FEA3202B6EB4F
:103FF000020E75EB030E22BFB61A754640EA9C000E
:104000005B084FEA3202B6EB020E75EB030E22BFDD
:10401000B61A754640EADC0055EA060E18D04FEA9B
:10402000051545EA16754FEA06164FEAC30343EA3B
:1040300052734FEAC2025FEA1C1CC0D111F4801F08
:104040000BD141EA00014FF000004FF0004CB6E701
:1040500011F4801F04BF01430020B4F1FD0C88BFA0
:10406000BCF5E06F3FF6AFAEB5EB030C04BFB6EBAB
:10407000020C5FEA500C50F1000041EB045170BD9E
:104080000EF0004E4EEA113114EB5C04C2BFD4EBCB
:104090000C0541EA045170BD41F480114FF0000E4F
:1040A000013C90E645EA060E8DE60CEA135594EACB
:1040B0000C0F08BF95EA0C0F3FF43BAF94EA0C0FCE
:1040C0000AD150EA01347FF434AF95EA0C0F7FF443
:1040D00025AF104619462CE795EA0C0F06D152EA97
:1040E00003353FF4FDAE1046194622E750EA41067B
:1040F00018BF52EA43067FF4C5AE50EA41047FF48C
:104100000DAF52EA43057FF4EBAE12E74FEA4102EE
:10411000B2F1E04324BFB3F5001CDCF1FE5C0DD925
:1041200001F0004C4FEAC0024CEA5070B2F1004F6F
:1041300040EB830008BF20F00100704711F0804F72
:1041400021D113F13872BCBF01F00040704741F437
:1041500080114FEA5252C2F11802C2F1200C10FA3B
:104160000CF320FA02F018BF40F001004FEAC1231F
:104170004FEAD32303FA0CFC40EA0C0023FA02F3C3
:104180004FEA4303CCE77FEA625307D150EA013399
:104190001EBF4FF0FE4040F44000704701F0004069
:1041A00040F0FE4040F40000704700BF80F0004047
:1041B00002E000BF81F0004142001FBF5FEA4103FF
:1041C00092EA030F7FEA226C7FEA236C6AD04FEAFF
:1041D0001262D2EB1363C1BFD21841404840414044
:1041E000B8BF5B42192B88BF704710F0004F40F4F6
:1041F000000020F07F4018BF404211F0004F41F412
:10420000000121F07F4118BF494292EA030F3FD0DD
:10421000A2F1010241FA03FC10EB0C00C3F12003F0
:1042200001FA03F100F0004302D5494260EB40007F
:10423000B0F5000F13D3B0F1807F06D340084FEAEA
:10424000310102F10102FE2A51D2B1F1004F40EBDF
:10425000C25008BF20F0010040EA03007047490047
:1042600040EB000010F4000FA2F10102EDD1B0FA12
:1042700080FCACF1080CB2EB0C0200FA0CF0AABF07
:1042800000EBC25052421843BCBFD04018437047A5
:1042900092F0000F81F4000106BF80F400000132AB
:1042A000013BB5E74FEA41037FEA226C18BF7FEA82
:1042B000236C21D092EA030F04D092F0000F08BFC4
:1042C0000846704790EA010F1CBF0020704712F0AB
:1042D0007F4F04D1400028BF40F00040704712F1EA
:1042E00000723CBF00F50000704700F0004343F04F
:1042F000FE4040F4000070477FEA226216BF084685
:104300007FEA23630146420206BF5FEA412390EA47
:10431000010F40F4800070474FF0000304E000BF3D
:1043200010F0004348BF40425FEA000C08BF7047EE
:1043300043F0964301464FF000001CE050EA0102B2
:1043400008BF70474FF000030AE000BF50EA0102C7
:1043500008BF704711F0004302D5404261EB4101B4
:104360005FEA010C02BF84460146002043F0B643D9
:1043700008BFA3F18053A3F50003BCFA8CF2083AFE
:10438000A3EBC25310DB01FA02FC634400FA02FC07
:10439000C2F12002BCF1004F20FA02F243EB02000E
:1043A00008BF20F00100704702F1200201FA02FC70
:1043B000C2F1200250EA4C0021FA02F243EB020063
:1043C00008BF20EADC7070474FF0FF0C1CEAD052A7
:1043D0001EBF1CEAD15392EA0C0F93EA0C0F6FD068
:1043E0001A4480EA010C400218BF5FEA41211ED046
:1043F0004FF0006343EA501043EA5111A0FB013132
:104400000CF00040B1F5000F3EBF490041EAD37106
:104410005B0040EA010062F17F02FD2A1DD8B3F182
:10442000004F40EBC25008BF20F00100704790F0F1
:10443000000F0CF0004C08BF49024CEA502040EA43
:1044400051207F3AC2BFD2F1FF0340EAC250704709
:1044500040F400004FF00003013A5DDC12F1190F47
:10446000DCBF00F000407047C2F10002410021FAB9
:1044700002F1C2F1200200FA02FC5FEA310040F1D1
:10448000000053EA4C0308BF20EADC70704792F04A
:10449000000F00F0004C02BF400010F4000F013A82
:1044A000F9D040EA0C0093F0000F01F0004C02BF7D
:1044B000490011F4000F013BF9D041EA0C018FE7EC
:1044C0000CEAD15392EA0C0F18BF93EA0C0F0AD0F2
:1044D00030F0004C18BF31F0004CD8D180EA010018
:1044E00000F00040704790F0000F17BF90F0004FB1
:1044F000084691F0000F91F0004F14D092EA0C0F93
:1045000001D142020FD193EA0C0F03D14B0218BF25
:10451000084608D180EA010000F0004040F0FE406B
:1045200040F40000704740F0FE4040F44000704707
:104530004FF0FF0C1CEAD0521EBF1CEAD15392EA86
:104540000C0F93EA0C0F69D0A2EB030280EA010C76
:1045500049024FEA402037D04FF0805343EA11110F
:1045600043EA10130CF000408B4238BF5B0042F16D
:104570007D024FF4000C8B4224BF5B1A40EA0C0012
:10458000B3EB510F24BFA3EB510340EA5C00B3EB44
:10459000910F24BFA3EB910340EA9C00B3EBD10F32
:1045A00024BFA3EBD10340EADC001B0118BF5FEA84
:1045B0001C1CE0D1FD2A3FF650AF8B4240EBC250AD
:1045C00008BF20F0010070470CF0004C4CEA50206E
:1045D0007F32C2BFD2F1FF0340EAC250704740F4BD
:1045E00000004FF00003013A37E792F0000F00F0AF
:1045F000004C02BF400010F4000F013AF9D040EA2D
:104600000C0093F0000F01F0004C02BF490011F4C0
:10461000000F013BF9D041EA0C0195E70CEAD153B8
:1046200092EA0C0F08D142027FF47DAF93EA0C0F9F
:104630007FF470AF084676E793EA0C0F04D14B0283
:104640003FF44CAF08466EE730F0004C18BF31F035
:10465000004CCAD130F000427FF45CAF31F000432F
:104660007FF43CAF5FE700BF4FF0FF3C06E000BFC8
:104670004FF0010C02E000BF4FF0010C4DF804CDEB
:104680004FEA40024FEA41037FEA226C18BF7FEAFB
:10469000236C11D001B052EA530C18BF90EA010FFD
:1046A00058BFB2EB030088BFC81738BF6FEAE1708C
:1046B00018BF40F0010070477FEA226C02D15FEA28
:1046C000402C05D17FEA236CE4D15FEA412CE1D094
:1046D0005DF8040B704700BF844608466146FFE75B
:1046E0000FB5FFF7C9FF002848BF10F1000F0FBD3D
:1046F0004DF808EDFFF7F4FF0CBF012000205DF836
:1047000008FB00BF4DF808EDFFF7EAFF34BF0120BA
:1047100000205DF808FB00BF4DF808EDFFF7E0FF53
:1047200094BF012000205DF808FB00BF4DF808EDA4
:10473000FFF7D2FF94BF012000205DF808FB00BF07
:104740004DF808EDFFF7C8FF34BF012000205DF8E9
:1047500008FB00BF4FEA4002B2F1FE4F0FD34FF00B
:104760009E03B3EB12620DD94FEA002343F00043DE
:1047700010F0004F23FA02F018BF404270474FF08C
:104780000000704712F1610F01D1420205D110F013
:10479000004008BF6FF0004070474FF000007047C6
:1047A00042000ED2B2F1FE4F0BD34FF09E03B3EB9B
:1047B000126209D44FEA002343F0004323FA02F0C7
:1047C00070474FF00000704712F1610F01D14202B3
:1047D00002D14FF0FF3070474FF00000704700BF2C
:1047E000014600200246034601F09ABD38B5054651
:1047F00004480C46134620B102202946224601F007
:104800008FFD38BD21630000014B1868704700BF61
:10481000E001001008B5074B044613B1002101F078
:10482000DBFD054B1868836A03B198472046FEF705
:104830004FFF00BFD9630000A471000070B50546AA
:104840000C4609B9002070BD18B183690BB900F09E
:1048500083F9204B9C4201D16C6808E01E4B9C42BE
:1048600001D1AC6803E01D4B9C4208BFEC68B4F971
:104870000C30002BE6D02846214600F039F8236B97
:10488000064633B12846216A98470028B8BF4FF042
:10489000FF36A3891B0603D52846216900F0DAFB01
:1048A000616B41B104F14403994202D0284600F003
:1048B000D1FB00236363A16C21B1284600F0CAFB41
:1048C0000023A36400F0B2F90023A38100F0AFF944
:1048D000304670BD407100006071000080710000C2
:1048E000024B01461868FFF7A9BF00BFE0010010A6
:1048F0008A892DE9F041054610070C4657D44B68CC
:10490000002B02DC0B6C002B18DDE66AB6B102F45A
:104910008052002392B22F682B600AB1626D10E0C2
:10492000216A28460123B047411C024609D12B6861
:104930003BB11D2B01D0162B46D12F600020BDE8C6
:10494000F081A3895B0705D56368D21A636B0BB14D
:10495000236CD21AE66A00232846216AB047461C17
:10496000A38905D12A681AB11D2A01D0162A19D1A6
:10497000002262602269D904226004D5421C01D160
:104980002B6803B96065616B2F600029D6D004F1F4
:104990004403994202D0284600F05CFB002060638B
:1049A000BDE8F08143F04003A381BDE8F0810F69C9
:1049B000002FC3D093070E680CBF4B690023C7EBD1
:1049C00006080F608B6012E0A3894FF0FF3043F0C0
:1049D0004003A381BDE8F0812846216A3A46434658
:1049E000A66AB0470028EFDD0744C0EB0808B8F11D
:1049F000000FF1DCA2E7000038B50B6905460C4654
:104A0000DBB118B183690BB900F0A6F80C4B9C42DE
:104A100001D16C6808E00B4B9C4201D1AC6803E00B
:104A2000094B9C4208BFEC68B4F90C302BB1284606
:104A30002146BDE83840FFF75BBF002038BD00BF0E
:104A4000407100006071000080710000014620B9D3
:104A5000044B0549186800F021BA044B1868FFF7A9
:104A6000CBBF00BFA4710000F9490000E0010010B5
:104A700038B50C46054618B183690BB900F06CF8DF
:104A80000E4B9C4201D16C6808E00D4B9C4201D159
:104A9000AC6803E00B4B9C4208BFEC686368013BC9
:104AA000002B636005DA28462146BDE8384001F056
:104AB0006DB823685A1C2260187838BD4071000018
:104AC0006071000080710000024B01461868FFF71A
:104AD000CFBF00BFE0010010014900F0DFB900BF07
:104AE000F949000010B50446002303604360836069
:104AF00081814366C28103614361836119465C30F1
:104B0000082200F09FFA054B24626362044BA36203
:104B1000044BE362044B236310BD00BF255E00001D
:104B20004B5E0000835E0000A75E000070B5682346
:104B30004D1E5D430E4605F1740100F0CFFA0446A8
:104B400040B1002180E842000C30A06005F168020D
:104B500000F078FA204670BD836910B5044633BB77
:104B60008364C3640365124B124A1B6882629842D5
:104B700004BF0123836100F01FF86060204600F04D
:104B80001BF8A060204600F017F80421E060002226
:104B90006068FFF7A7FFA06809210122FFF7A2FFC5
:104BA000E06812210222FFF79DFF0123A36110BDDF
:104BB000A4710000D94A0000F8B51B4B07461E68D7
:104BC000B36913B93046FFF7C7FF4836B468736856
:104BD000013B04D4B4F90C5075B16834F8E733687C
:104BE0002BB938460421FFF7A1FF306008B13668C1
:104BF000ECE70C233B60F8BD4FF6FF73E381012324
:104C0000A38165662560A560656025616561A56114
:104C100004F15C002946082200F014FA6563A563DC
:104C2000A564E5642046F8BDA47100007047704794
:104C300038B5074B074C1D46E41AA41024B1013CBB
:104C400055F824309847F9E7BDE8384001F0E6BF51
:104C5000F0010010F4010010F7B50F46114601AA4B
:104C6000054601F033FC064608B9002029E0284635
:104C7000FFF7A2FF04460028F7D028463946019ADC
:104C80004FF4DB7300F0A4FE002806DA0025FFF7DE
:104C9000CDFFA581FFF7CBFFE7E70B4BE081636218
:104CA0000A4BA681A3620A4B2462E362094B236389
:104CB000F30505D5284621460022022300F044F8DA
:104CC000204603B0F0BD00BF255E00004B5E000033
:104CD000835E0000A75E000003460A46024908689A
:104CE0001946FFF7B9BF00BFE001001070B50E46CE
:104CF0001446054618B183690BB9FFF72DFF0A4B1F
:104D00009C4201D16C6808E0084B9C4201D1AC6820
:104D100003E0074B9C4208BFEC6828463146224618
:104D2000BDE8704000F066BE407100006071000098
:104D30008071000003460A46024908681946FFF7D9
:104D4000D5BF00BFE001001000F000B82DE9F84326
:104D50000C4690461E46054618B183690BB9FFF70D
:104D6000FBFE3D4B9C4201D16C6808E03B4B9C42F2
:104D700001D1AC6803E03A4B9C4208BFEC68A389C0
:104D800003F48473B3F5847F03D128462146FFF7EB
:104D900033FEE76A0FB91D232BE0012E04D0022E4B
:104DA0002BD056B3162324E028462146FFF724FED5
:104DB000A28902F4805292B20AB1606D05E0216AC4
:104DC00028463346B847411C14D0A3895A0706D554
:104DD0006368C01A636B4BB1236CC01A06E01B07F3
:104DE00004D5236813B122699B1A18448044002615
:104DF00003E02B604FF0FF392BE023691BB92846F5
:104E0000214600F08FF828462146FFF7F5FD814640
:104E10000028EFD12846216A42463346B847013080
:104E2000E8D0616B41B104F14403994202D02846B5
:104E300000F010F900236363236900212360A38934
:104E4000616023F40263A38104F15C00082200F096
:104E5000F9F84846BDE8F883407100006071000031
:104E6000807100002DE9F041884600F148040026D9
:104E70008CB1A5686768013F0BD4AB89012B06D9BB
:104E8000B5F90E30013302D02846C04706436835D5
:104E9000F1E72468ECE73046BDE8F0812DE9F843FE
:104EA0008046894600F14804002694B1A5686768E9
:104EB000013F0CD4AB89012B07D9B5F90E30013372
:104EC00003D040462946C84706436835F0E72468C2
:104ED000EBE73046BDE8F8830E4B70B51E460E4C2E
:104EE0000025E41AA410A54204D056F825309847AE
:104EF0000135F8E701F08CFE084B094C1E46E41A18
:104F0000A4100025A54204D056F825309847013555
:104F1000F8E770BDE8010010E8010010E80100109A
:104F2000F0010010F0B58B8991B09D0706460C4644
:104F300025D4B1F90E10002908DAA389002513F051
:104F4000800F14BF40274FF480670DE001AA01F0E5
:104F5000F5FA0028F1DB029D4FF4806705F47045F7
:104F6000A5F500514D424D413046394600F0B6F8A6
:104F700060B9A3899A051DD443F00203A38104F10B
:104F80004703236023610123636113E00A4BB3628B
:104F9000A389206043F08003A381206167614DB144
:104FA0003046B4F90E1001F0DBFA18B1A38943F0D2
:104FB0000103A38111B0F0BDD94A0000024B0146A4
:104FC000186800F08BB800BFE0010010024B0146EA
:104FD000186800F03FB800BFE001001010B5C9B27A
:104FE00002449042034605D01C7801308C42F8D12F
:104FF000184610BD002010BD10B5431E0A44914252
:1050000004D011F8014B03F8014FF8E710BD8142BD
:1050100010B501EB020301D3421E0BE09842FBD214
:105020008118D21AD34204D013F8014D01F8014D72
:10503000F8E710BD994204D011F8014B02F8014F76
:10504000F8E710BD03460244934202D003F8011B67
:10505000FAE7704730B500293CD051F8042C0B1FFB
:105060001D49002AB8BF9B180A680C4612B95A603D
:105070000B6030BD93420DD219685818904201BFA1
:105080005A5852181A60426823605A6030BD9942DB
:1050900003D80A4651680029F9D1146815199D42B0
:1050A0000AD11B682344D0188842136012D10868C3
:1050B000034413604B680CE002D90C23036030BD3D
:1050C0001C681819884201BF0868496800191860EF
:1050D0005960536030BD00BFEC05001070B5CC1CAA
:1050E00024F0030408340C2C38BF0C24002C064692
:1050F00003DA0C233360002070BD8C42F9D3204AC0
:10510000136810461946A1B10A68121B0ED40B2A67
:1051100003D90A608B188C501FE08B420BBF5A6872
:105120004A6802605A6018BF0B4616E00B46496891
:10513000E9E7144D2B681BB9304600F053FD286099
:105140003046214600F04EFD421C0346D1D0C51C1E
:1051500025F0030585420AD11C6003F10B001A1DDE
:1051600020F00700821A0AD05142995070BD304693
:10517000E91A00F037FD0130BBD02B46ECE770BDDB
:10518000EC050010E8050010936810B5013B002BFA
:10519000936009DA9469A34202DBCBB20A2B03D1F4
:1051A000BDE8104000F0EABF1368581C1060197089
:1051B000C8B210BDF8B506460F461446D518AC4225
:1051C00008D0304614F8011B3A46FFF7DDFF431CB8
:1051D000F5D100E00020F8BD2DE9F0439DB00D466B
:1051E00090460393064618B183690BB9FFF7B4FCE8
:1051F000754B9D4201D1756808E0744B9D4201D109
:10520000B56803E0724B9D4208BFF568AB891C0787
:105210000AD52B6943B10023099320238DF8293047
:1052200030238DF82A3041E03046294601F00CF851
:105230000028F0D04FF0FF30C2E0039A0134111D76
:1052400012680391002ABBBF524243F00203079247
:105250000792B8BF049323782E2B7BD0DFF8808190
:10526000217840460322FFF7B9FE38B1049AC8EB13
:1052700000004023834013430493013421785548B0
:10528000062204F101088DF82810FFF7A7FE002878
:1052900000F08580504B002B78D1039B073323F01F
:1052A000070308330393099B3B44099343461C4679
:1052B00013F8012B1AB9B4EB08090ED002E0252A25
:1052C000F5D1F8E73046294642464B46FFF772FFD4
:1052D000013070D0099B4B4409932378002B6AD08E
:1052E00000234FF0FF3204930793059206938DF845
:1052F00053301A9304F101084446DFF8E89021780E
:1053000048460522FFF76AFE08F10108049B30B108
:10531000C9EB00000122824013430493ECE7D80656
:1053200044BF20228DF85320190744BF2B228DF84B
:10533000532022782A2A80D0234607991C462278B7
:105340000133303A092A03D80A2000FB0121F5E78E
:10535000079180E763782A2B0AD1039B02341A1D38
:105360001B680392002BB8BF4FF0FF33059375E71E
:10537000611C00220C4623780131303B092B03D8F5
:105380000A2000FB0232F5E7059267E703AB0093C2
:10539000304604A92A46114BAFF3008007E003AB67
:1053A0000093304604A92A460C4B00F0A1F8421C99
:1053B00007467FF478AFAB895B063FF53BAF0998B2
:1053C0001DB0BDE8F08300BF4071000060710000B7
:1053D00080710000B271000000000000B5510000B3
:1053E000AE710000A871000030B505460C461346AA
:1053F000034A294610682246BDE83040FFF7ECBE5C
:10540000E00100102DE9F84391461F468A680B69B8
:1054100006469342B8BF1346C9F8003091F84320BE
:105420000C46DDF8208012B10133C9F80030236842
:10543000990642BFD9F800300233C9F80030256818
:1054400015F006051CD094F843302268003318BFCD
:10545000012392061FD5E118302081F843005A1C21
:1054600094F845102244023382F8431013E030468A
:10547000394604F119020123C047013007D0013534
:10548000E368D9F800209B1A9D42F0DBDBE74FF080
:10549000FF30BDE8F8833046394604F14302C04787
:1054A0000130F4D02268D9F80050E36802F0060217
:1054B000042A08BF5D1B2269A3680CBF25EAE575B5
:1054C00000259342C4BF9B1AED184FF00009A9456F
:1054D0000ADA3046394604F11A020123C047013086
:1054E000D5D009F10109F2E70020BDE8F8830000FA
:1054F0002DE9FF410C461746227E98466E2A064645
:105500000A9B01F1430100F0B08012D8632A23D036
:105510000AD8002A00F0BD80582A40F0CC8084F8D8
:105520004520DFF804E257E0642A1ED0692A1CD027
:10553000C1E0732A00F0B18009D86F2A2ED0702AFA
:1055400040F0B980226842F0200222603FE0752AD4
:1055500024D0782A3BD0AEE01A6804F14205111D30
:105560001960136884F84230A9E020681A6810F0C6
:10557000800F02D0101D186008E010F0400F02F1FB
:105580000400186002D0B2F9003000E01368002B6C
:105590003EDA2D225B4284F8432039E020681A6805
:1055A00010F0800F02D0101D186007E010F0400FBF
:1055B00002F10400186001D0138800E01368227E15
:1055C000DFF864E16F2A0CBF08220A221CE078226F
:1055D000DFF858E184F845202268186812F0800F3F
:1055E00000F104051D6003D1550601D5038800E0D4
:1055F0000368D00744BF42F0200222601BB9226832
:1056000022F0200222601022002084F8430002E0F1
:10561000DFF814E10A226568002DA8BF2068A560A4
:10562000A4BF20F00400206003B965B10D46B3FBB0
:10563000F2F002FB10331EF8033005F8013D03467B
:105640000028F4D100E00D46082A0BD12368DA07C0
:1056500008D5236962689A42DEBF302305F8013C11
:1056600005F1FF35491B21612EE025681A6815F008
:10567000800F606903D0151D1D60136808E015F0E8
:10568000400F02F104051D60136801D0188000E08E
:105690001860002323610D4616E01A68111D196079
:1056A0001568002128466268FFF798FC08B1401B86
:1056B0006060636804E004F1420584F8422001233D
:1056C0002361002384F84330CDF800803046214622
:1056D00003AA3B46FFF796FE013002D14FF0FF30A0
:1056E0001FE0304639462A462369C0470130F5D0CD
:1056F00023689B0705D4E068039B9842B8BF18460F
:105700000FE00025E368039A9B1A9D42F3DA3046C6
:10571000394604F119020123C0470130DED00135BA
:10572000F0E704B0BDE8F081B9710000CA71000073
:105730002DE9F04115468A6880460C4632B98A69DF
:10574000002A0CBF01224FF0FF328A602268002637
:10575000D1065FBF1A68111D19601768A069F8B9F2
:1057600023680136DA065EBF2B681B783B702A6817
:105770006B6802F101022A60A26803F1FF3302F1B3
:10578000FF326B6058BF0137A260EAB1002BE5DC45
:10579000D4F880314046294698470028DED013E0EF
:1057A000012807D12B6862691B78D35C002BD7D105
:1057B000C6B109E0022807D12B680B4A1B78126892
:1057C00013445B781B07CBD5236813F0100305D176
:1057D000E2680132E260A26902B13B7023690020F5
:1057E0001E442661BDE8F081E40100102DE9F04F70
:1057F0000C469A46724B87B08346164693E80700DC
:1058000003AB83E807006F4BA1696F4A04F11C09E1
:10581000032918BF1A46A36800925A1EB2F5AE7F3C
:1058200082BF6FF4AE7503EB050840F25D134F467F
:1058300088BFA360236898BF4FF0000843F450630B
:1058400023600023326803A951F823001178022253
:105850000193FFF7C3FB019B002835D0012B0BD12F
:1058600062682AB908226260226842F400722260EB
:10587000226822F4A0620BE0022B0AD1226802F413
:10588000C061B1F5007F1FD11021616042F48072C8
:105890002260A268511EA160B2B132687D1C511C09
:1058A000316012783A707268013A002A72600ADC3C
:1058B000D4F880215846314601939047002841D1C1
:1058C0002F46019B00E02F460133032BBAD16368BA
:1058D0000BB90A23636063683C496069C91A00F028
:1058E00091F93D460027A3686BB3316860690A7877
:1058F000805C40B3302A22680AD1100508D50137F0
:10590000B8F1000F0BD0013308F1FF38A36006E0B7
:1059100022F4106222600B78013505F8013C7368AF
:10592000013B002B736003DD33680133336005E016
:10593000D4F8803158463146984720B9A368013BD6
:10594000A360D0E700272368D9050DD54D4509D9B7
:1059500015F8011C05F1FF38D4F87C315846324661
:10596000984745464D4527D0226812F010021BD1BA
:105970002A70636858464946009EB0472268DAF8A4
:10598000003012F0200F07D1D20705D51A1DCAF832
:1059900000201B68188004E01A1DCAF800201B684C
:1059A0001860E3680133E360C9EB05053D442769EE
:1059B00000203D44256100E0012007B0BDE8F08FE4
:1059C000DC71000011600000055F0000F87100004C
:1059D00038B5074C054600202060084611461A4697
:1059E000FDF744FD431C02D1236803B12B6038BD91
:1059F000F411001070B50E461446054618B18369BF
:105A00000BB9FFF7A9F8164B9C4201D16C6808E06E
:105A1000144B9C4201D1AC6803E0134B9C4208BF7D
:105A2000EC68A368013B002BA36011DAA2699342E2
:105A300007DB23681E70236819780A290BD12846D2
:105A400001E0284631462246BDE8704000F096BB92
:105A500023681E7023685A1C2260187870BD00BF2E
:105A6000407100006071000080710000838903F0C4
:105A70000903092B01D1FEF7E9BF002070470000A0
:105A8000F8B50C46054618B183690BB9FFF764F801
:105A9000394B9C4201D16C6808E0384B9C4201D1E3
:105AA000AC6803E0364B9C4208BFEC68A289002337
:105AB000636093B29E065AD458071AD4D90605D407
:105AC000092342F040022B60A28150E01A070BD557
:105AD00028462146FEF790FF002848D1A389A06000
